{
  "transactions": [
    {
      "hash": "0xb0c1a983822b9793e19024a023a18acf81fbc1e24e74fa53e07dcd1f16d558d9",
      "transactionType": "CALL",
      "contractName": null,
      "contractAddress": "0xde684eec61bb7676f93ab2823959fc9a1240f18b",
      "function": "transfer(address,uint256)",
      "arguments": [
        "0xbb55140ddB7565906F4cb295e3257cf7C363FAD2",
        "1000000000000000000000"
      ],
      "transaction": {
        "from": "0x096dd3ebfab85c85309477ddf3a18fc31ecba33a",
        "to": "0xde684eec61bb7676f93ab2823959fc9a1240f18b",
        "gas": "0x11995",
        "value": "0x0",
        "input": "0xa9059cbb000000000000000000000000bb55140ddb7565906f4cb295e3257cf7c363fad200000000000000000000000000000000000000000000003635c9adc5dea00000",
        "nonce": "0x56",
        "chainId": "0x14a34"
      },
      "additionalContracts": [],
      "isFixedGasLimit": false
    }
  ],
  "receipts": [
    {
      "status": "0x1",
      "cumulativeGasUsed": "0x2b3f80",
      "logs": [
        {
          "address": "0xde684eec61bb7676f93ab2823959fc9a1240f18b",
          "topics": [
            "0xddf252ad1be2c89b69c2b068fc378daa952ba7f163c4a11628f55a4df523b3ef",
            "0x000000000000000000000000096dd3ebfab85c85309477ddf3a18fc31ecba33a",
            "0x000000000000000000000000bb55140ddb7565906f4cb295e3257cf7c363fad2"
          ],
          "data": "0x00000000000000000000000000000000000000000000003635c9adc5dea00000",
          "blockHash": "0x0000000000000000000000000000000000000000000000000000000000000000",
          "blockNumber": "0x28b258b",
          "blockTimestamp": "0x6a29a9f6",
          "transactionHash": "0xb0c1a983822b9793e19024a023a18acf81fbc1e24e74fa53e07dcd1f16d558d9",
          "transactionIndex": "0x9",
          "logIndex": "0x74",
          "removed": false
        }
      ],
      "logsBloom": "0x00000100000000000000000000000000000000000000000000000000000000000000000000001000000000000000000000000000000000000000000000000000000000000000000000000008000000000000000000000000000000000000000000000000000000000001000000000000000000000000000000000010000020000000000000000000000000000000200000000000000000000000000000000000000000000000000000000000000000000000000000080000000000000000000000000022000000000000000000000000000000000000000000000000000000000000000000000000000000000000000000000000000000000000000000004080",
      "type": "0x2",
      "transactionHash": "0xb0c1a983822b9793e19024a023a18acf81fbc1e24e74fa53e07dcd1f16d558d9",
      "transactionIndex": "0x9",
      "blockHash": "0x0000000000000000000000000000000000000000000000000000000000000000",
      "blockNumber": "0x28b258b",
      "gasUsed": "0xcbdd",
      "effectiveGasPrice": "0x5b8d80",
      "blobGasUsed": "0xae38",
      "from": "0x096dd3ebfab85c85309477ddf3a18fc31ecba33a",
      "to": "0xde684eec61bb7676f93ab2823959fc9a1240f18b",
      "contractAddress": null,
      "daFootprintGasScalar": "0x1be",
      "l1BaseFeeScalar": "0x44d",
      "l1BlobBaseFee": "0x373487d",
      "l1BlobBaseFeeScalar": "0xa118b",
      "l1Fee": "0x14edd08d6",
      "l1GasPrice": "0x3cd99a9a",
      "l1GasUsed": "0x640"
    }
  ],
  "libraries": [],
  "pending": [],
  "returns": {},
  "timestamp": 1781115381518,
  "chain": 84532,
  "commit": "f48d81d"
}